{
  "contractName": "MockNFT",
  "abi": [
    {
      "anonymous": false,
      "inputs": [
        {
          "indexed": true,
          "internalType": "address",
          "name": "owner",
          "type": "address"
        },
        {
          "indexed": true,
          "internalType": "address",
          "name": "approved",
          "type": "address"
        },
        {
          "indexed": true,
          "internalType": "uint256",
          "name": "tokenId",
          "type": "uint256"
        }
      ],
      "name": "Approval",
      "type": "event"
    },
    {
      "anonymous": false,
      "inputs": [
        {
          "indexed": true,
          "internalType": "address",
          "name": "owner",
          "type": "address"
        },
        {
          "indexed": true,
          "internalType": "address",
          "name": "operator",
          "type": "address"
        },
        {
          "indexed": false,
          "internalType": "bool",
          "name": "approved",
          "type": "bool"
        }
      ],
      "name": "ApprovalForAll",
      "type": "event"
    },
    {
      "anonymous": false,
      "inputs": [
        {
          "indexed": true,
          "internalType": "address",
          "name": "from",
          "type": "address"
        },
        {
          "indexed": true,
          "internalType": "address",
          "name": "to",
          "type": "address"
        },
        {
          "indexed": true,
          "internalType": "uint256",
          "name": "tokenId",
          "type": "uint256"
        }
      ],
      "name": "Transfer",
      "type": "event"
    },
    {
      "inputs": [
        {
          "internalType": "address",
          "name": "to",
          "type": "address"
        },
        {
          "internalType": "uint256",
          "name": "tokenId",
          "type": "uint256"
        }
      ],
      "name": "approve",
      "outputs": [],
      "stateMutability": "nonpayable",
      "type": "function"
    },
    {
      "inputs": [
        {
          "internalType": "address",
          "name": "owner",
          "type": "address"
        }
      ],
      "name": "balanceOf",
      "outputs": [
        {
          "internalType": "uint256",
          "name": "",
          "type": "uint256"
        }
      ],
      "stateMutability": "view",
      "type": "function",
      "constant": true
    },
    {
      "inputs": [
        {
          "internalType": "uint256",
          "name": "tokenId",
          "type": "uint256"
        }
      ],
      "name": "getApproved",
      "outputs": [
        {
          "internalType": "address",
          "name": "",
          "type": "address"
        }
      ],
      "stateMutability": "view",
      "type": "function",
      "constant": true
    },
    {
      "inputs": [
        {
          "internalType": "address",
          "name": "owner",
          "type": "address"
        },
        {
          "internalType": "address",
          "name": "operator",
          "type": "address"
        }
      ],
      "name": "isApprovedForAll",
      "outputs": [
        {
          "internalType": "bool",
          "name": "",
          "type": "bool"
        }
      ],
      "stateMutability": "view",
      "type": "function",
      "constant": true
    },
    {
      "inputs": [],
      "name": "name",
      "outputs": [
        {
          "internalType": "string",
          "name": "",
          "type": "string"
        }
      ],
      "stateMutability": "view",
      "type": "function",
      "constant": true
    },
    {
      "inputs": [
        {
          "internalType": "uint256",
          "name": "tokenId",
          "type": "uint256"
        }
      ],
      "name": "ownerOf",
      "outputs": [
        {
          "internalType": "address",
          "name": "",
          "type": "address"
        }
      ],
      "stateMutability": "view",
      "type": "function",
      "constant": true
    },
    {
      "inputs": [
        {
          "internalType": "address",
          "name": "from",
          "type": "address"
        },
        {
          "internalType": "address",
          "name": "to",
          "type": "address"
        },
        {
          "internalType": "uint256",
          "name": "tokenId",
          "type": "uint256"
        }
      ],
      "name": "safeTransferFrom",
      "outputs": [],
      "stateMutability": "nonpayable",
      "type": "function"
    },
    {
      "inputs": [
        {
          "internalType": "address",
          "name": "from",
          "type": "address"
        },
        {
          "internalType": "address",
          "name": "to",
          "type": "address"
        },
        {
          "internalType": "uint256",
          "name": "tokenId",
          "type": "uint256"
        },
        {
          "internalType": "bytes",
          "name": "_data",
          "type": "bytes"
        }
      ],
      "name": "safeTransferFrom",
      "outputs": [],
      "stateMutability": "nonpayable",
      "type": "function"
    },
    {
      "inputs": [
        {
          "internalType": "address",
          "name": "operator",
          "type": "address"
        },
        {
          "internalType": "bool",
          "name": "approved",
          "type": "bool"
        }
      ],
      "name": "setApprovalForAll",
      "outputs": [],
      "stateMutability": "nonpayable",
      "type": "function"
    },
    {
      "inputs": [
        {
          "internalType": "bytes4",
          "name": "interfaceId",
          "type": "bytes4"
        }
      ],
      "name": "supportsInterface",
      "outputs": [
        {
          "internalType": "bool",
          "name": "",
          "type": "bool"
        }
      ],
      "stateMutability": "view",
      "type": "function",
      "constant": true
    },
    {
      "inputs": [],
      "name": "symbol",
      "outputs": [
        {
          "internalType": "string",
          "name": "",
          "type": "string"
        }
      ],
      "stateMutability": "view",
      "type": "function",
      "constant": true
    },
    {
      "inputs": [
        {
          "internalType": "uint256",
          "name": "tokenID",
          "type": "uint256"
        }
      ],
      "name": "tokenURI",
      "outputs": [
        {
          "internalType": "string",
          "name": "",
          "type": "string"
        }
      ],
      "stateMutability": "view",
      "type": "function",
      "constant": true
    },
    {
      "inputs": [],
      "name": "totalMinted",
      "outputs": [
        {
          "internalType": "uint256",
          "name": "",
          "type": "uint256"
        }
      ],
      "stateMutability": "view",
      "type": "function",
      "constant": true
    },
    {
      "inputs": [],
      "name": "totalSupply",
      "outputs": [
        {
          "internalType": "uint256",
          "name": "",
          "type": "uint256"
        }
      ],
      "stateMutability": "view",
      "type": "function",
      "constant": true
    },
    {
      "inputs": [
        {
          "internalType": "address",
          "name": "from",
          "type": "address"
        },
        {
          "internalType": "address",
          "name": "to",
          "type": "address"
        },
        {
          "internalType": "uint256",
          "name": "tokenId",
          "type": "uint256"
        }
      ],
      "name": "transferFrom",
      "outputs": [],
      "stateMutability": "nonpayable",
      "type": "function"
    },
    {
      "inputs": [
        {
          "internalType": "address",
          "name": "to",
          "type": "address"
        },
        {
          "internalType": "uint256",
          "name": "tokenId",
          "type": "uint256"
        },
        {
          "internalType": "string",
          "name": "tokenURI",
          "type": "string"
        }
      ],
      "name": "mint",
      "outputs": [],
      "stateMutability": "nonpayable",
      "type": "function"
    }
  ],
  "bytecode": "0x60806040526040518060400160405280600881526020017f4d794e65774e46540000000000000000000000000000000000000000000000008152506000908051906020019062000051929190620000bf565b506040518060400160405280600381526020017f4e46540000000000000000000000000000000000000000000000000000000000815250600190805190602001906200009f929190620000bf565b50617d006002556000600355348015620000b857600080fd5b50620001d4565b828054620000cd906200016f565b90600052602060002090601f016020900481019282620000f157600085556200013d565b82601f106200010c57805160ff19168380011785556200013d565b828001600101855582156200013d579182015b828111156200013c5782518255916020019190600101906200011f565b5b5090506200014c919062000150565b5090565b5b808211156200016b57600081600090555060010162000151565b5090565b600060028204905060018216806200018857607f821691505b602082108114156200019f576200019e620001a5565b5b50919050565b7f4e487b7100000000000000000000000000000000000000000000000000000000600052602260045260246000fd5b6124de80620001e46000396000f3fe608060405234801561001057600080fd5b506004361061011d576000357c01000000000000000000000000000000000000000000000000000000009004806370a08231116100b4578063b88d4fde11610083578063b88d4fde146102ca578063c87b56dd146102e6578063d3fc986414610316578063e985e9c5146103325761011d565b806370a082311461024257806395d89b4114610272578063a22cb46514610290578063a2309ff8146102ac5761011d565b806318160ddd116100f057806318160ddd146101bc57806323b872dd146101da57806342842e0e146101f65780636352211e146102125761011d565b806301ffc9a71461012257806306fdde0314610152578063081812fc14610170578063095ea7b3146101a0575b600080fd5b61013c6004803603810190610137919061193e565b610362565b6040516101499190611f7b565b60405180910390f35b61015a610444565b6040516101679190611f96565b60405180910390f35b61018a60048036038101906101859190611990565b6104d6565b6040516101979190611f14565b60405180910390f35b6101ba60048036038101906101b5919061189b565b61055b565b005b6101c4610673565b6040516101d19190612158565b60405180910390f35b6101f460048036038101906101ef9190611795565b61067d565b005b610210600480360381019061020b9190611795565b6106dd565b005b61022c60048036038101906102279190611990565b6106fd565b6040516102399190611f14565b60405180910390f35b61025c60048036038101906102579190611730565b6107af565b6040516102699190612158565b60405180910390f35b61027a610867565b6040516102879190611f96565b60405180910390f35b6102aa60048036038101906102a5919061185f565b6108f9565b005b6102b4610a7a565b6040516102c19190612158565b60405180910390f35b6102e460048036038101906102df91906117e4565b610a84565b005b61030060048036038101906102fb9190611990565b610ae6565b60405161030d9190611f96565b60405180910390f35b610330600480360381019061032b91906118d7565b610b8b565b005b61034c60048036038101906103479190611759565b610b9b565b6040516103599190611f7b565b60405180910390f35b60007f80ac58cd000000000000000000000000000000000000000000000000000000007bffffffffffffffffffffffffffffffffffffffffffffffffffffffff1916827bffffffffffffffffffffffffffffffffffffffffffffffffffffffff1916148061042d57507fe17881ba000000000000000000000000000000000000000000000000000000007bffffffffffffffffffffffffffffffffffffffffffffffffffffffff1916827bffffffffffffffffffffffffffffffffffffffffffffffffffffffff1916145b8061043d575061043c82610c2f565b5b9050919050565b6060600080546104539061237c565b80601f016020809104026020016040519081016040528092919081815260200182805461047f9061237c565b80156104cc5780601f106104a1576101008083540402835291602001916104cc565b820191906000526020600020905b8154815290600101906020018083116104af57829003601f168201915b5050505050905090565b60006104e182610c99565b610520576040517f08c379a0000000000000000000000000000000000000000000000000000000008152600401610517906120d8565b60405180910390fd5b6006600083815260200190815260200160002060009054906101000a900473ffffffffffffffffffffffffffffffffffffffff169050919050565b6000610566826106fd565b90508073ffffffffffffffffffffffffffffffffffffffff168373ffffffffffffffffffffffffffffffffffffffff1614156105d7576040517f08c379a00000000000000000000000000000000000000000000000000000000081526004016105ce90612118565b60405180910390fd5b8073ffffffffffffffffffffffffffffffffffffffff166105f6610d05565b73ffffffffffffffffffffffffffffffffffffffff16148061062557506106248161061f610d05565b610b9b565b5b610664576040517f08c379a000000000000000000000000000000000000000000000000000000000815260040161065b90612058565b60405180910390fd5b61066e8383610d0d565b505050565b6000600254905090565b61068e610688610d05565b82610dc6565b6106cd576040517f08c379a00000000000000000000000000000000000000000000000000000000081526004016106c490612138565b60405180910390fd5b6106d8838383610ea4565b505050565b6106f883838360405180602001604052806000815250610a84565b505050565b6000806004600084815260200190815260200160002060009054906101000a900473ffffffffffffffffffffffffffffffffffffffff169050600073ffffffffffffffffffffffffffffffffffffffff168173ffffffffffffffffffffffffffffffffffffffff1614156107a6576040517f08c379a000000000000000000000000000000000000000000000000000000000815260040161079d90612098565b60405180910390fd5b80915050919050565b60008073ffffffffffffffffffffffffffffffffffffffff168273ffffffffffffffffffffffffffffffffffffffff161415610820576040517f08c379a000000000000000000000000000000000000000000000000000000000815260040161081790612078565b60405180910390fd5b600560008373ffffffffffffffffffffffffffffffffffffffff1673ffffffffffffffffffffffffffffffffffffffff168152602001908152602001600020549050919050565b6060600180546108769061237c565b80601f01602080910402602001604051908101604052809291908181526020018280546108a29061237c565b80156108ef5780601f106108c4576101008083540402835291602001916108ef565b820191906000526020600020905b8154815290600101906020018083116108d257829003601f168201915b5050505050905090565b610901610d05565b73ffffffffffffffffffffffffffffffffffffffff168273ffffffffffffffffffffffffffffffffffffffff16141561096f576040517f08c379a000000000000000000000000000000000000000000000000000000000815260040161096690612018565b60405180910390fd5b806007600061097c610d05565b73ffffffffffffffffffffffffffffffffffffffff1673ffffffffffffffffffffffffffffffffffffffff16815260200190815260200160002060008473ffffffffffffffffffffffffffffffffffffffff1673ffffffffffffffffffffffffffffffffffffffff16815260200190815260200160002060006101000a81548160ff0219169083151502179055508173ffffffffffffffffffffffffffffffffffffffff16610a29610d05565b73ffffffffffffffffffffffffffffffffffffffff167f17307eab39ab6107e8899845ad3d59bd9653f200f220920489ca2b5937696c3183604051610a6e9190611f7b565b60405180910390a35050565b6000600354905090565b610a95610a8f610d05565b83610dc6565b610ad4576040517f08c379a0000000000000000000000000000000000000000000000000000000008152600401610acb90612138565b60405180910390fd5b610ae084848484611100565b50505050565b6060600860008381526020019081526020016000208054610b069061237c565b80601f0160208091040260200160405190810160405280929190818152602001828054610b329061237c565b8015610b7f5780601f10610b5457610100808354040283529160200191610b7f565b820191906000526020600020905b815481529060010190602001808311610b6257829003601f168201915b50505050509050919050565b610b9683838361115c565b505050565b6000600760008473ffffffffffffffffffffffffffffffffffffffff1673ffffffffffffffffffffffffffffffffffffffff16815260200190815260200160002060008373ffffffffffffffffffffffffffffffffffffffff1673ffffffffffffffffffffffffffffffffffffffff16815260200190815260200160002060009054906101000a900460ff16905092915050565b60007f01ffc9a7000000000000000000000000000000000000000000000000000000007bffffffffffffffffffffffffffffffffffffffffffffffffffffffff1916827bffffffffffffffffffffffffffffffffffffffffffffffffffffffff1916149050919050565b60008073ffffffffffffffffffffffffffffffffffffffff166004600084815260200190815260200160002060009054906101000a900473ffffffffffffffffffffffffffffffffffffffff1673ffffffffffffffffffffffffffffffffffffffff1614159050919050565b600033905090565b816006600083815260200190815260200160002060006101000a81548173ffffffffffffffffffffffffffffffffffffffff021916908373ffffffffffffffffffffffffffffffffffffffff160217905550808273ffffffffffffffffffffffffffffffffffffffff16610d80836106fd565b73ffffffffffffffffffffffffffffffffffffffff167f8c5be1e5ebec7d5bd14f71427d1e84f3dd0314c0f7b2291e5b200ac8c7c3b92560405160405180910390a45050565b6000610dd182610c99565b610e10576040517f08c379a0000000000000000000000000000000000000000000000000000000008152600401610e0790612038565b60405180910390fd5b6000610e1b836106fd565b90508073ffffffffffffffffffffffffffffffffffffffff168473ffffffffffffffffffffffffffffffffffffffff161480610e8a57508373ffffffffffffffffffffffffffffffffffffffff16610e72846104d6565b73ffffffffffffffffffffffffffffffffffffffff16145b80610e9b5750610e9a8185610b9b565b5b91505092915050565b8273ffffffffffffffffffffffffffffffffffffffff16610ec4826106fd565b73ffffffffffffffffffffffffffffffffffffffff1614610f1a576040517f08c379a0000000000000000000000000000000000000000000000000000000008152600401610f11906120f8565b60405180910390fd5b600073ffffffffffffffffffffffffffffffffffffffff168273ffffffffffffffffffffffffffffffffffffffff161415610f8a576040517f08c379a0000000000000000000000000000000000000000000000000000000008152600401610f8190611ff8565b60405180910390fd5b610f9583838361136d565b610fa0600082610d0d565b6001600560008573ffffffffffffffffffffffffffffffffffffffff1673ffffffffffffffffffffffffffffffffffffffff1681526020019081526020016000206000828254610ff09190612292565b925050819055506001600560008473ffffffffffffffffffffffffffffffffffffffff1673ffffffffffffffffffffffffffffffffffffffff1681526020019081526020016000206000828254611047919061223c565b92505081905550816004600083815260200190815260200160002060006101000a81548173ffffffffffffffffffffffffffffffffffffffff021916908373ffffffffffffffffffffffffffffffffffffffff160217905550808273ffffffffffffffffffffffffffffffffffffffff168473ffffffffffffffffffffffffffffffffffffffff167fddf252ad1be2c89b69c2b068fc378daa952ba7f163c4a11628f55a4df523b3ef60405160405180910390a4505050565b61110b848484610ea4565b61111784848484611372565b611156576040517f08c379a000000000000000000000000000000000000000000000000000000000815260040161114d90611fb8565b60405180910390fd5b50505050565b600073ffffffffffffffffffffffffffffffffffffffff168373ffffffffffffffffffffffffffffffffffffffff1614156111cc576040517f08c379a00000000000000000000000000000000000000000000000000000000081526004016111c3906120b8565b60405180910390fd5b6111d582610c99565b15611215576040517f08c379a000000000000000000000000000000000000000000000000000000000815260040161120c90611fd8565b60405180910390fd5b6112216000848461136d565b600160036000828254611234919061223c565b925050819055506001600560008573ffffffffffffffffffffffffffffffffffffffff1673ffffffffffffffffffffffffffffffffffffffff168152602001908152602001600020600082825461128b919061223c565b92505081905550826004600084815260200190815260200160002060006101000a81548173ffffffffffffffffffffffffffffffffffffffff021916908373ffffffffffffffffffffffffffffffffffffffff1602179055508060086000848152602001908152602001600020908051906020019061130b929190611554565b50818373ffffffffffffffffffffffffffffffffffffffff16600073ffffffffffffffffffffffffffffffffffffffff167fddf252ad1be2c89b69c2b068fc378daa952ba7f163c4a11628f55a4df523b3ef60405160405180910390a4505050565b505050565b60006113938473ffffffffffffffffffffffffffffffffffffffff16611541565b15611534578373ffffffffffffffffffffffffffffffffffffffff1663150b7a026113bc610d05565b8786866040518563ffffffff167c01000000000000000000000000000000000000000000000000000000000281526004016113fa9493929190611f2f565b602060405180830381600087803b15801561141457600080fd5b505af192505050801561144557506040513d601f19601f820116820180604052508101906114429190611967565b60015b6114c8573d8060008114611475576040519150601f19603f3d011682016040523d82523d6000602084013e61147a565b606091505b506000815114156114c0576040517f08c379a00000000000000000000000000000000000000000000000000000000081526004016114b790611fb8565b60405180910390fd5b805181602001fd5b63150b7a027c0100000000000000000000000000000000000000000000000000000000027bffffffffffffffffffffffffffffffffffffffffffffffffffffffff1916817bffffffffffffffffffffffffffffffffffffffffffffffffffffffff191614915050611539565b600190505b949350505050565b600080823b905060008111915050919050565b8280546115609061237c565b90600052602060002090601f01602090048101928261158257600085556115c9565b82601f1061159b57805160ff19168380011785556115c9565b828001600101855582156115c9579182015b828111156115c85782518255916020019190600101906115ad565b5b5090506115d691906115da565b5090565b5b808211156115f35760008160009055506001016115db565b5090565b600061160a611605846121a4565b612173565b90508281526020810184848401111561162257600080fd5b61162d84828561233a565b509392505050565b6000611648611643846121d4565b612173565b90508281526020810184848401111561166057600080fd5b61166b84828561233a565b509392505050565b6000813590506116828161244c565b92915050565b60008135905061169781612463565b92915050565b6000813590506116ac8161247a565b92915050565b6000815190506116c18161247a565b92915050565b600082601f8301126116d857600080fd5b81356116e88482602086016115f7565b91505092915050565b600082601f83011261170257600080fd5b8135611712848260208601611635565b91505092915050565b60008135905061172a81612491565b92915050565b60006020828403121561174257600080fd5b600061175084828501611673565b91505092915050565b6000806040838503121561176c57600080fd5b600061177a85828601611673565b925050602061178b85828601611673565b9150509250929050565b6000806000606084860312156117aa57600080fd5b60006117b886828701611673565b93505060206117c986828701611673565b92505060406117da8682870161171b565b9150509250925092565b600080600080608085870312156117fa57600080fd5b600061180887828801611673565b945050602061181987828801611673565b935050604061182a8782880161171b565b925050606085013567ffffffffffffffff81111561184757600080fd5b611853878288016116c7565b91505092959194509250565b6000806040838503121561187257600080fd5b600061188085828601611673565b925050602061189185828601611688565b9150509250929050565b600080604083850312156118ae57600080fd5b60006118bc85828601611673565b92505060206118cd8582860161171b565b9150509250929050565b6000806000606084860312156118ec57600080fd5b60006118fa86828701611673565b935050602061190b8682870161171b565b925050604084013567ffffffffffffffff81111561192857600080fd5b611934868287016116f1565b9150509250925092565b60006020828403121561195057600080fd5b600061195e8482850161169d565b91505092915050565b60006020828403121561197957600080fd5b6000611987848285016116b2565b91505092915050565b6000602082840312156119a257600080fd5b60006119b08482850161171b565b91505092915050565b6119c2816122c6565b82525050565b6119d1816122d8565b82525050565b60006119e282612204565b6119ec818561221a565b93506119fc818560208601612349565b611a058161243b565b840191505092915050565b6000611a1b8261220f565b611a25818561222b565b9350611a35818560208601612349565b611a3e8161243b565b840191505092915050565b6000611a5660328361222b565b91507f4552433732313a207472616e7366657220746f206e6f6e20455243373231526560008301527f63656976657220696d706c656d656e74657200000000000000000000000000006020830152604082019050919050565b6000611abc601c8361222b565b91507f4552433732313a20746f6b656e20616c7265616479206d696e746564000000006000830152602082019050919050565b6000611afc60248361222b565b91507f4552433732313a207472616e7366657220746f20746865207a65726f2061646460008301527f72657373000000000000000000000000000000000000000000000000000000006020830152604082019050919050565b6000611b6260198361222b565b91507f4552433732313a20617070726f766520746f2063616c6c6572000000000000006000830152602082019050919050565b6000611ba2602c8361222b565b91507f4552433732313a206f70657261746f7220717565727920666f72206e6f6e657860008301527f697374656e7420746f6b656e00000000000000000000000000000000000000006020830152604082019050919050565b6000611c0860388361222b565b91507f4552433732313a20617070726f76652063616c6c6572206973206e6f74206f7760008301527f6e6572206e6f7220617070726f76656420666f7220616c6c00000000000000006020830152604082019050919050565b6000611c6e602a8361222b565b91507f4552433732313a2062616c616e636520717565727920666f7220746865207a6560008301527f726f2061646472657373000000000000000000000000000000000000000000006020830152604082019050919050565b6000611cd460298361222b565b91507f4552433732313a206f776e657220717565727920666f72206e6f6e657869737460008301527f656e7420746f6b656e00000000000000000000000000000000000000000000006020830152604082019050919050565b6000611d3a60208361222b565b91507f4552433732313a206d696e7420746f20746865207a65726f20616464726573736000830152602082019050919050565b6000611d7a602c8361222b565b91507f4552433732313a20617070726f76656420717565727920666f72206e6f6e657860008301527f697374656e7420746f6b656e00000000000000000000000000000000000000006020830152604082019050919050565b6000611de060298361222b565b91507f4552433732313a207472616e73666572206f6620746f6b656e2074686174206960008301527f73206e6f74206f776e00000000000000000000000000000000000000000000006020830152604082019050919050565b6000611e4660218361222b565b91507f4552433732313a20617070726f76616c20746f2063757272656e74206f776e6560008301527f72000000000000000000000000000000000000000000000000000000000000006020830152604082019050919050565b6000611eac60318361222b565b91507f4552433732313a207472616e736665722063616c6c6572206973206e6f74206f60008301527f776e6572206e6f7220617070726f7665640000000000000000000000000000006020830152604082019050919050565b611f0e81612330565b82525050565b6000602082019050611f2960008301846119b9565b92915050565b6000608082019050611f4460008301876119b9565b611f5160208301866119b9565b611f5e6040830185611f05565b8181036060830152611f7081846119d7565b905095945050505050565b6000602082019050611f9060008301846119c8565b92915050565b60006020820190508181036000830152611fb08184611a10565b905092915050565b60006020820190508181036000830152611fd181611a49565b9050919050565b60006020820190508181036000830152611ff181611aaf565b9050919050565b6000602082019050818103600083015261201181611aef565b9050919050565b6000602082019050818103600083015261203181611b55565b9050919050565b6000602082019050818103600083015261205181611b95565b9050919050565b6000602082019050818103600083015261207181611bfb565b9050919050565b6000602082019050818103600083015261209181611c61565b9050919050565b600060208201905081810360008301526120b181611cc7565b9050919050565b600060208201905081810360008301526120d181611d2d565b9050919050565b600060208201905081810360008301526120f181611d6d565b9050919050565b6000602082019050818103600083015261211181611dd3565b9050919050565b6000602082019050818103600083015261213181611e39565b9050919050565b6000602082019050818103600083015261215181611e9f565b9050919050565b600060208201905061216d6000830184611f05565b92915050565b6000604051905081810181811067ffffffffffffffff8211171561219a5761219961240c565b5b8060405250919050565b600067ffffffffffffffff8211156121bf576121be61240c565b5b601f19601f8301169050602081019050919050565b600067ffffffffffffffff8211156121ef576121ee61240c565b5b601f19601f8301169050602081019050919050565b600081519050919050565b600081519050919050565b600082825260208201905092915050565b600082825260208201905092915050565b600061224782612330565b915061225283612330565b9250827fffffffffffffffffffffffffffffffffffffffffffffffffffffffffffffffff03821115612287576122866123ae565b5b828201905092915050565b600061229d82612330565b91506122a883612330565b9250828210156122bb576122ba6123ae565b5b828203905092915050565b60006122d182612310565b9050919050565b60008115159050919050565b60007fffffffff0000000000000000000000000000000000000000000000000000000082169050919050565b600073ffffffffffffffffffffffffffffffffffffffff82169050919050565b6000819050919050565b82818337600083830152505050565b60005b8381101561236757808201518184015260208101905061234c565b83811115612376576000848401525b50505050565b6000600282049050600182168061239457607f821691505b602082108114156123a8576123a76123dd565b5b50919050565b7f4e487b7100000000000000000000000000000000000000000000000000000000600052601160045260246000fd5b7f4e487b7100000000000000000000000000000000000000000000000000000000600052602260045260246000fd5b7f4e487b7100000000000000000000000000000000000000000000000000000000600052604160045260246000fd5b6000601f19601f8301169050919050565b612455816122c6565b811461246057600080fd5b50565b61246c816122d8565b811461247757600080fd5b50565b612483816122e4565b811461248e57600080fd5b50565b61249a81612330565b81146124a557600080fd5b5056fea264697066735822122021e526ca87e7d2bfbb5e2ef8a9545b0bfa0e437f5a0d6f982993b5ee41cac42964736f6c63430008000033",
  "immutableReferences": {},
  "source": "// SPDX-License-Identifier: MIT\npragma solidity >=0.4.22 <0.9.0;\n\nimport \"@openzeppelin/contracts/token/ERC721/ERC721.sol\";\n\ncontract MockNFT is ERC721 {\n    function mint(\n        address to,\n        uint256 tokenId,\n        string memory tokenURI\n    ) public {\n        _mint(to, tokenId, tokenURI);\n    }\n}\n",
  "sourcePath": "/Users/klongrich/myfiles/nftTokenMinterContracts/contracts/MockNFT.sol",
  "compiler": {
    "name": "solc",
    "version": "0.8.0+commit.c7dfd78e.Linux.g++"
  },
  "schemaVersion": "3.4.1",
  "updatedAt": "2022-01-07T11:08:28.595Z",
  "networkType": "ethereum",
  "devdoc": {
    "kind": "dev",
    "methods": {
      "approve(address,uint256)": {
        "details": "See {IERC721-approve}."
      },
      "balanceOf(address)": {
        "details": "See {IERC721-balanceOf}."
      },
      "getApproved(uint256)": {
        "details": "See {IERC721-getApproved}."
      },
      "isApprovedForAll(address,address)": {
        "details": "See {IERC721-isApprovedForAll}."
      },
      "name()": {
        "details": "See {IERC721Metadata-name}."
      },
      "ownerOf(uint256)": {
        "details": "See {IERC721-ownerOf}."
      },
      "safeTransferFrom(address,address,uint256)": {
        "details": "See {IERC721-safeTransferFrom}."
      },
      "safeTransferFrom(address,address,uint256,bytes)": {
        "details": "See {IERC721-safeTransferFrom}."
      },
      "setApprovalForAll(address,bool)": {
        "details": "See {IERC721-setApprovalForAll}."
      },
      "supportsInterface(bytes4)": {
        "details": "See {IERC165-supportsInterface}."
      },
      "symbol()": {
        "details": "See {IERC721Metadata-symbol}."
      },
      "tokenURI(uint256)": {
        "details": "See {IERC721Metadata-tokenURI}."
      },
      "totalMinted()": {
        "details": "see {IERC721Metadata-symbol}"
      },
      "totalSupply()": {
        "details": "see {IERC721Metadata-symbol}."
      },
      "transferFrom(address,address,uint256)": {
        "details": "See {IERC721-transferFrom}."
      }
    },
    "version": 1
  },
  "userdoc": {
    "kind": "user",
    "methods": {},
    "version": 1
  }
}